:020000040000FA
:10000000303C0020990200000000000000000000C9
:1000100000000000000000000000000000000000E0
:1000200000000000000000000000000000000000D0
:1000300000000000000000000000000000000000C0
:10004000A3020000F30200006B030000B7020000EF
:100050000000000000000000CB020000DF020000F2
:100060004303000057030000000000007F0300006E
:10007000070300001B0300002F0300000000000026
:1000800000F002F800F05AF80CA030C80838241824
:100090002D18A246671EAB4654465D46AC4201D1C0
:1000A00000F04CF87E460F3E0FCCB6460126334298
:1000B00000D0FB1AA246AB4633431847DC59000078
:1000C000FC590000103A02D378C878C1FAD8520718
:1000D00001D330C830C101D504680C6070470000FE
:1000E0000023002400250026103A01D378C1FBD854
:1000F000520700D330C100D50B60704710B50368BC
:100100001B0A01D380231943642902D105F0B2F8F8
:1001100010BD752902D105F0ADF810BD782902D1C6
:1001200005F016F910BDE42902D105F0D9F810BD8B
:10013000002010BD1FB51FBD10B510BD05F0FCFBA4
:100140001146FFF7F7FF00F029F805F014FC03B49F
:10015000FFF7F2FF03BC00F054F9000070B505464C
:100160000C46164602E00FCC0FC5103E102EFAD2F8
:10017000082E02D303CC03C5083E042E07D301CCBE
:1001800001C5361F03E021782970641C6D1C761EA2
:10019000F9D270BD10B504F0D2FD10BD86B002F0EA
:1001A0005DFF20480178204801F039FC01F042FC55
:1001B0001C49087801F047FC1CA005F04DF82148C7
:1001C00001F0A0F801F0D4F802F024FE02F01CFEC9
:1001D00001F0ADFD00F037F906231A46194618461E
:1001E00001F0F8FD02F016FE02F00EFE0D4804F0DC
:1001F0006FFD16E014A005F02FF802A804F080FDB2
:100200000599049801910090029C224617A0039B37
:1002100005F022F8002000E0401C1E498842FBD374
:1002200000BFE7E7B859000095010000436F6E6614
:1002300069677572696E6720746865204144432E52
:100240000A000000AC5900004D6561737572696E5B
:1002500067207468652072657369737469766520B8
:1002600073656E736F722E0A000000004573746927
:100270006D617465642074696D6520636F6E73745D
:10028000616E743A20256C6C64202F20256C6C64A0
:100290000A00000060AE0A00414942480860424836
:1002A000004701B5012080F3108801F02EFB0020EB
:1002B00080F3108801BD01B5012080F3108801F0A2
:1002C00019F8002080F3108801BD01B5012080F3EA
:1002D000108800F0F5FE002080F3108801BD01B504
:1002E000012080F3108801F033FC002080F3108897
:1002F00001BD01B5012080F3108801F09AFA0020B9
:1003000080F3108801BD01B5012080F3108801F051
:1003100095FA002080F3108801BD01B5012080F31B
:10032000108801F08FFA002080F3108801BD01B51C
:10033000012080F3108801F08AFA002080F31088F1
:1003400001BD01B5012080F3108800F081FF00207D
:1003500080F3108801BD01B5012080F3108800F002
:100360002EFF002080F3108801BD01B5012080F32D
:10037000108800F078F8002080F3108801BD01B5E6
:10038000012080F3108800F06FF8002080F31088BF
:1003900001BD000005480649064A074B70470000AA
:1003A00000E100E00000000081000000303000208B
:1003B000303C002030340020303400200146002042
:1003C0007047512109060870704710B55124240662
:1003D00023781846FFF7F5FF184610BD10B5034601
:1003E0000C461846FFF7EDFF10BD10B50446FFF7A9
:1003F000ECFF10BD10B5044604492046FFF7EEFFA0
:1004000010BD03A004F028FF00BFFEE7000000209D
:100410000D0A5445535420444F4E450D0A00000028
:1004200010B52021A14805F07DF8A1489F498861B9
:10043000A048C86110BD9D48407870470320C002A5
:100440009D490860704710B500F0EDF9FFF7F6FF21
:1004500000BFFFF7F0FF0028FBD000F095F997A050
:1004600004F0FAFE10BD7047F0B58DB000200C907E
:1004700001F0CCFB054601F0CDFB079001F0CEFB6F
:10048000069001F0CFFB059001F0D0FB049001F045
:10049000D1FB039001F0D2FB029001F0D3FB01905D
:1004A0007F2029214906086080480078401C7F4948
:1004B00008702920400606688648076838048019B5
:1004C0000A908548066885480768380480190990AD
:1004D0008348066883480768380484198248066898
:1004E00082480768380480190B9081480668814863
:1004F00007683804801908900020292149060860FF
:100500007D4808606948007802287DDD7B490998AC
:1005100088420AD2002D07D10798401E07900A256D
:1005200003206249087000E06D1E754909988842F1
:100530000AD91F2D07D10798401C079014250320C6
:100540005A49087000E06D1C2946079802F009FC22
:10055000079801F07FFB284601F078FB534880693B
:100560000B99884204D25148C069401E4F49C86166
:100570004E48806901460B98814204D94B48C069B6
:10058000401C4A49C8614949C86902F0ABFC5D4852
:10059000844203D90698401C06900DE05A488442D4
:1005A00003D90598401C059006E05748413884421D
:1005B00002D90498401C04905448844203D20698FF
:1005C000401E06900EE05048A038844203D20598A1
:1005D000401E059006E04C485F38844202D20498E1
:1005E000401E0490049800901F210846059B069A1F
:1005F00002F0ECFC069801F031FB059801F032FBAB
:10060000049801F033FB00E01CE04149089888425F
:1006100002D90198401C01903E490898884202D2B4
:100620000198401E019000220199029802F05FFBA0
:10063000029801F023FB019801F024FB02F0EAFB91
:1006400002F0E2FB069823462A46009032A0099960
:1006500004F002FE1548C069009034A00B9B049A78
:10066000059904F0F9FD37A0019A089904F0F4FD0A
:100670000E480078192817D10320C0020E49803196
:100680000860002009490870012048700A984860F5
:10069000084684600898C8600B980861099848610A
:1006A00000202921490608600DB0F0BDF4000020AB
:1006B00094D10300BA02000000E100E043616C69DC
:1006C00062726174696F6E20636F6D706C657465C2
:1006D0000D0A0000000004520000105200001452E5
:1006E0000000185200001C520000285200002C523A
:1006F0000000305200003452FF3F0000C8781E0056
:1007000038901E00980F0300900D0300E80A0300C4
:10071000786F18008864180048463D25642D2564CC
:10072000202020324D3D25642D2564002C25642C8D
:1007300025642020204C433D25642D256420202065
:100740000000000049463D25642D25640D0A000087
:100750002820F74908600620F6490860704770B500
:1007600005460C4622462946F34804F07CFEF24832
:100770000121890788600846C4600120086070BDB7
:10078000102081060860704700B5FFF7F9FF0120CF
:100790004003EA4908600020E549086000BD0220E6
:1007A00041070860704700B5E34814380078012815
:1007B00002D1FFF7F4FF09E0DF481438007802287F
:1007C00004D10120DE49C871FFF7DEFF00BD70B51E
:1007D00004460D460120D84914390870D94801F063
:1007E00022F929462046FFF7BAFFFFF7B1FF01F0D3
:1007F00053F97D2109014618304601F046F90021E0
:10080000D148017700BFD048007F0028FBD070BDE1
:1008100001204003C94908600520C0020860042087
:100820000107086070471820C14908600120C149CC
:100830000860C148803041210906486110208106C6
:100840000860704770B505460C460220BA49143955
:100850000870FF2D01DC284600E0FF20B849203950
:100860000877002C02D0B74801F0DDF80021B44829
:100870000172FFF7D8FFFFF7CBFF002C07D001F084
:100880000BF97D2109014618304601F0FEF80020E1
:10089000AB49C87100BFAA48C0790028FBD070BD21
:1008A00010B504462146FF20FFF7CCFF10BD70476E
:1008B00000B50246FFF768FF0121A348017700BD9C
:1008C00001219F4A11727047A0480068704710B517
:1008D00002F0F7F910BD9C488038407D7047FFB5A5
:1008E00081B00C4615461E460A9F02F0FBF95538AA
:1008F00040B2307002F0F3F938708F486C30007DF0
:1009000020702078A84205DC22788B49813101983B
:1009100004F0A9FD05B0F0BD1CB50446002001900F
:10092000FF2189481D3004F0FBFD8548401D0090E3
:100930002538027F0346243301A9E338FFF7CFFFB0
:10094000FFF7C9FF00281DD07D482038007FFF2811
:1009500006D07B482038007F69460979884211D14A
:10096000FFF7B5FF76492039C862FFF7ADFF74493C
:10097000203908630846026A6846017972481D30CA
:10098000904703E0FFF74FFFFFF742FF00206C495D
:1009900008720120C8711CBD0FB4F0B58BB012985D
:1009A000049010A8407903900020029010A80078CD
:1009B000012802D166A0019001E068A0019010A872
:1009C0000079022815D110A8077C407C099010A856
:1009D000807C0890781CC0B2079000BF0998401C2A
:1009E000C0B2069000BF0898401CC0B2059000BF7E
:1009F0000FE010A8C77C807D079010A8007D0990AB
:100A000010A8C07D069010A8407D089010A8007E18
:100A1000059000BF63E03C465EE0099D57E0089EFC
:100A200050E008A804724572867210A80079012867
:100A300005D133462A4621464AA004F00DFC00BFEA
:100A400032462946204602F014FA10A800780228FF
:100A500005D110A948790121FFF7F4FE1EE010A886
:100A6000007801281AD1009007E02021129A0098FE
:100A700011540098401CC0B2009010A84179009811
:100A80008142F2DC1298049000BF139B0A9A0399EA
:100A90000498984703990498FFF799FE0298401C20
:100AA000029010A80221415E0298814208D135A02F
:100AB000029904F0D1FB0BB0F0BC08BC04B018479D
:100AC000701CC6B205988642ABDB681CC5B206989E
:100AD0008542A4DB601CC4B2079884429DDB9AE780
:100AE00070B506460D4636A004F0B6FB002407E0BC
:100AF00015481D30015D39A004F0AEFB601CC4B286
:100B0000A81EA042F4DC36A004F0A6FB70BD0C4980
:100B1000203908627047084914390861704706494E
:100B20001439C86070470449143988607047000060
:100B30000000285200004052D00200200000105255
:100B40005C050020A70700003C0400200000545270
:100B50007472616E736D6974000000007265636584
:100B600069766500636F617273653D25642C206D45
:100B70006964646C653D25642C2066696E653D255D
:100B8000640D0A0053746F7070696E672072782F5D
:100B900074782061732077652068617665207265BE
:100BA0006365697665642F7472616E736D697474C0
:100BB0006564202564207061636B6574730A0000AE
:100BC0005265636569766564205061636B65742E58
:100BD00020436F6E74656E74733A200025642000A4
:100BE0000A000000FE494860704710B55721C9004F
:100BF000FB4804F097FCFB49FB488165C91F8161F4
:100C00000F21803001834020F84908601F208905AA
:100C1000486108200862F648FFF7E4FFF548FFF74F
:100C200082FFF548FFF77BFFF448FFF774FFF448B5
:100C3000FFF76DFF10BD10B5044621460B398A0041
:100C4000E9491831885802F04DF910BD10B5044635
:100C500021460B398A00E4495831885802F042F99C
:100C600010BD70B505460C460B21DF480175012CFF
:100C700002D0022C0AD104E0DB49087DFFF7E6FF31
:100C800005E0D949087DFFF7D6FF00E000BF00BFAF
:100C900070BD012080070068102188438906086024
:100CA0007047F7B584B000BF00F0C8FF019000F0B6
:100CB000C9FF0090CA488030007D0290CA48803049
:100CC000408B401C81B2C848803041830025029A85
:100CD000D100CC4B069A5A43104604F02FFC0390E7
:100CE000092407E06000C849095A601C4000C64A50
:100CF0001152641E002CF5DA039800B2C249088034
:100D0000002407E06000C049085EC049095D48430F
:100D10004519641C0A2CF5DD2846E917C90D091888
:100D20004F12B1488030418B008B814216D17D201B
:100D3000C000874207DD0098421C01460092002255
:100D4000019801F0D4FFB248874207DA0098421EAA
:100D5000014600920022019801F0C9FF019800F0BD
:100D60008DFF009800F08EFF0025059819286DD2A0
:100D7000092407E0A000A7490958601C8000A54A83
:100D80001150641E002CF5DAA24904980860002472
:100D900007E0A0009F4908589C49095D4843451950
:100DA000641C0A2CF5DD2846E917C90D09184E12F6
:100DB0008D488030418B008B814247D14120C0005B
:100DC00086421DD98848007D0B388100864818303E
:100DD0004058401C8449097D0B398A0082491831EA
:100DE00088508148007D0B3881007F48583040583A
:100DF000401C7D49097D0B398A007B495831885058
:100E0000FF20E13086421DD27748007D0B388100FB
:100E1000754818304058401E7349097D0B398A00C7
:100E20007149183188507048007D0B3881006E4838
:100E300058304058401E6C49097D0B398A006A4978
:100E400058318850002168488030418307B0F0BD98
:100E5000402066490860704740206449803108603E
:100E600070476D48008800B27047F1B5A2B04021CC
:100E700012A804F057FB442101A804F053FB5A497F
:100E80002298886100245BE0A200574918318858F5
:100E900002F028F800202921490608605F48086010
:100EA000012700E07F1C7D20C0018742FAD37F200C
:100EB0002921490608605A4805685A4806683004DE
:100EC0004019A10012AA5050611C4900454AFE3247
:100ED0008918129A514308464249FE3104F024FB16
:100EE000611C890001AA5050002C1CDDA00012A931
:100EF0000958A00010581438814209D2A1003A487C
:100F000018304058401CA2003749183188500AE078
:100F1000A1003548183040582830611C8A003249F9
:100F200018318850641C002C0AD1A1002E481830BA
:100F300040582830611C8A002B4918318850641CA5
:100F4000102CA1DB002400E0641C102CFCDB1298A8
:100F500023B0F0BDF0B5B3B005460E4600244021E5
:100F600021A804F0DFFA442110A804F0DBFA2022C3
:100F70002D4908A8FFF7F2F820222B4920316846B6
:100F8000FFF7ECF81848856572E0A2001649583161
:100F9000885801F0A7FF00202921490608601F4852
:100FA00008600120319002E03198401C31907D2191
:100FB000C90131988842F7DB7F2029214906086062
:100FC0001748076817480068329032980004C01923
:100FD000A10021AA505062006B46995A620025E098
:100FE000BC020020C3020000BC03002000E100E0BE
:100FF000AF080000B1080000C10800001909000096
:10100000E10A0000093D0000A402002018000020B1
:1010100018FCFFFF2400002000006452FF3F000086
:101020000000285200002C52DC59000008AB9A5AEC
:101030007243104604F078FAA10010AA5050A000A4
:1010400021A90958A0001058401F814207D2A100D1
:1010500098484058401CA2009649885008E0A100DA
:10106000944840582830611C8A0092498850641C7A
:10107000102C8ADB33B0F0BD70B504462046FFF774
:10108000F4FE05468C4800F085FEFF202B3000F072
:1010900091FEFF20343000F08DFEFF20F93000F08B
:1010A00079FEFF20FB3000F085FEFF20FD3000F0D0
:1010B00081FE29462046FFF74DFFFFF765FB70BD17
:1010C00070B5012080070469C56900F0E0FA00F0FE
:1010D0001AFB0121774858384175002D08D00820A7
:1010E0002840002803D0002172485838417500BFBD
:1010F000012080074562E007C00F002806D00120CC
:101100008007806901210843890788610220204007
:10111000002810D069484068002805D021225206D6
:101120005068664A5168884701208007806902211B
:1011300008434907886104202040002810D05F48F8
:101140008068002805D02122520650685B4A9168C9
:1011500088470120800780690421084309078861C6
:1011600008202040002810D05448C068002805D02E
:10117000212252065068514AD168884701208007D1
:10118000806908210843C906886110202040002892
:1011900010D04A480069002805D021225206506824
:1011A000464A116988470120800780691021084359
:1011B0008906886100F070FA00F0AAFA70BD70B577
:1011C0003F4805683F480668300440193E490968B1
:1011D00089003E4A50503C480068401C3A4908602B
:1011E0003B480068202108433949086008460068E8
:1011F000384908603648006820218843344908602F
:1012000008460068334908602F4800680A281ED144
:10121000012406E0A0002D4A11582FA004F01CF86C
:10122000641C0A2CF6D3FF2001302D4908604000D1
:101230002B4980390860002023490860002400E021
:10124000641C28488442FBD327482849C86070BDE5
:1012500010B51F4A126860231A431D4B1A601A46C4
:1012600012681C4B1A601A4A126860239A43184B82
:101270001A601A461268174B1A6001225202184B64
:10128000803B1A605210164B1A605200184B1A60BD
:101290000B4A10680B4A11680A0412180A4B1B68A3
:1012A0009B000A4CE250084A1268521C064B1A6016
:1012B00010BD000014040020CB030000BC0200207D
:1012C0000000445200004852080000201401002091
:1012D0001400002000000C5225580D0A00000000E8
:1012E00080E100E0102700000400FA0500ED00E0B6
:1012F00080E200E0B1480088B14908800120B1498E
:101300000870704710B504462178F22000F080F88C
:101310006178F32000F07CF8A178F42000F078F8F0
:10132000E07800F084F8207900F0B4F8607900F0FB
:10133000E4F8A07900F00EF9E179A34800F068F82C
:10134000217AA148C01C00F063F8607A8007C10FC1
:101350009D48753000F05CF8607AC107C90F9B4862
:1013600000F056F8A17A1120800100F051F810BD6C
:1013700010B5974800680821084395490860084659
:10138000016894A003F068FF10BD10B5904880304C
:101390000068082108438E498031086008460168CA
:1013A00094A003F059FF10BD002086490870012069
:1013B00005210907086070478248007870470020BF
:1013C0008049087070477E480088704700B5002249
:1013D0000CE0FFF7E9FF00BF7A4800780028FBD057
:1013E000002000E0401C0A28FCD3521C022AF0D343
:1013F0007348008800BD10B50023002403E0FFF708
:10140000E5FFC318641C102CF9D31803000C10BDA1
:1014100070B505460C46E007C00F002803D02846EB
:1014200000F0C8FC02E0284600F0B4FC70BD10B526
:1014300004462006C10F64482038FFF7E9FF600624
:10144000C10F61481F38FFF7E3FFA006C10F03205B
:101450000002FFF7DDFFE006C10F5B481D38FFF714
:10146000D7FF2007C10F58481C38FFF7D1FF60078E
:10147000C10F55481B38FFF7CBFFA007C10F19203C
:101480004001FFF7C5FFE107C90F4F481938FFF7C3
:10149000BFFF10BD10B504462006C10F3320000168
:1014A000FFF7B6FF6006C10F47481330FFF7B0FFE4
:1014B000A006C10F44481430FFF7AAFFE006C10F91
:1014C00041481530FFF7A4FF2007C10FCD20800051
:1014D000FFF79EFF6007C10F3B481730FFF798FFEB
:1014E000A007C10F38481830FFF792FFE107C90F76
:1014F00035481930FFF78CFF10BD10B50446600663
:10150000C10F31481438FFF783FFA006C10F312007
:101510000001FFF77DFFE006C10F2B480F38FFF7F2
:1015200077FF2007C10F28481038FFF771FF6007C9
:10153000C10F25481138FFF76BFFA007C10FC3206B
:101540008000FFF765FFE107C90F1F481338FFF759
:101550005FFF10BD10B504462006C10F1A482138A0
:10156000FFF756FF6006C10FBF208000FFF750FF56
:10157000A006C10F14482338FFF74AFFE006C10F49
:1015800011482438FFF744FF2007C10F0E482538C3
:10159000FFF73EFF6007C10F5F20C000FFF738FF75
:1015A000A007C10F08482738FFF732FFE107C90F2E
:1015B00005482838FFF72CFF10BD0000000004503C
:1015C00050000020520000201E0300003F040000D5
:1015D00000E100E041444320696E746572727570E9
:1015E0007420656E61626C65643A20307825782ECF
:1015F0000A00000041444320696E74657272757080
:10160000742064697361626C65643A20307825786F
:101610002E0A0000904909680122824011438E4A37
:10162000116070478C4909680122824091438A4ABF
:101630001160704788490968012282405140864AFA
:101640001160704784480068000C000482490860FB
:10165000704700B50020FFF7DDFF00BD00B500209A
:10166000FFF7E0FF00BD00B50020FFF7E3FF00BD7E
:1016700000B50120FFF7CEFF00BD00B50120FFF748
:10168000D1FF00BD00B50120FFF7D4FF00BD00B5BC
:101690000220FFF7BFFF00BD00B50220FFF7C2FF29
:1016A00000BD00B50220FFF7C5FF00BD00B5032057
:1016B000FFF7B0FF00BD00B50320FFF7B3FF00BD8B
:1016C00000B50320FFF7B6FF00BD00B50420FFF70B
:1016D000A1FF00BD00B50420FFF7A4FF00BD00B5C9
:1016E0000420FFF7A7FF00BD00B50520FFF792FF1C
:1016F00000BD00B50520FFF795FF00BD00B5052032
:10170000FFF798FF00BD00B50620FFF783FF00BD7F
:1017100000B50620FFF786FF00BD00B50620FFF7E5
:1017200089FF00BD00B50720FFF774FF00BD00B5BD
:101730000720FFF777FF00BD00B50720FFF77AFF0E
:1017400000BD00B50820FFF765FF00BD00B508200B
:10175000FFF768FF00BD00B50820FFF76BFF00BD75
:1017600000B50920FFF756FF00BD00B50920FFF7BF
:1017700059FF00BD00B50920FFF75CFF00BD00B5B3
:101780000A20FFF747FF00BD00B50A20FFF74AFF18
:1017900000BD00B50A20FFF74DFF00BD00B50B20CE
:1017A000FFF738FF00BD00B50B20FFF73BFF00BD82
:1017B00000B50B20FFF73EFF00BD00B50C20FFF782
:1017C00029FF00BD00B50C20FFF72CFF00BD00B5C0
:1017D0000C20FFF72FFF00BD00B50D20FFF71AFF0B
:1017E00000BD00B50D20FFF71DFF00BD00B50D20A9
:1017F000FFF720FF00BD00B50E20FFF70BFF00BD77
:1018000000B50E20FFF70EFF00BD00B50E20FFF75C
:1018100011FF00BD00B50F20FFF7FCFE00BD00B5B5
:101820000F20FFF7FFFE00BD00B50F20FFF702FFFE
:1018300000BD10B509A003F00FFD10BD10B5FEF7F7
:1018400013FE10BD10B50FA003F006FD10BD10B5BE
:1018500016A003F001FD10BD000004534578746527
:10186000726E616C20496E74657272757074204777
:1018700050494F33207472696767657265640D0A59
:101880000000000045787465726E616C20496E74CA
:10189000657272757074204750494F3920747269AF
:1018A0006767657265640D0A00000000457874651D
:1018B000726E616C20496E74657272757074204727
:1018C00050494F3130207472696767657265640DE5
:1018D0000A00000010B536480078002809D03548C5
:1018E0000078102148405121090608600020304945
:1018F000087031480068002802D02F4800688047EF
:1019000010BD512000060078704710B52B480068C4
:10191000002805D0FFF7F5FF0446284909688847E5
:1019200010BD25490860704724490860704710B50C
:1019300023480068012108432149086008460168DE
:1019400020A003F089FC10BD10B51D488030006850
:10195000012108431A49803108600846016821A026
:1019600003F07AFC10BD002804D011215122120688
:10197000116003E01321512212061160704710B567
:101980000446132C03D0112C01D0102C09D10120B6
:1019900007490870074804701220512109060860A1
:1019A00002E0512000060460FFF794FF10BD000024
:1019B0005C0000205D000020540000205800002042
:1019C00000E100E05541525420696E7465727275F1
:1019D000707420656E61626C65643A203078257899
:1019E0002E0A00005541525420696E74657272755A
:1019F00070742064697361626C65643A2030782584
:101A0000782E0A0010B52C215C4803F08BFD0020D5
:101A1000C0432121490688600720086010BD8A0064
:101A2000564B9850704710B5044600212046FFF7EA
:101A3000F6FF10BD802052490860704701218140A7
:101A4000504A5163704700B503461846FFF7F6FF4A
:101A5000032099004C4A5158086000BD30B5044637
:101A60000D462846FFF7EFFFFFF7E4FF2120400671
:101A70004068201A4549884202D301204149086341
:101A8000A80043490858046030BD10B50446002141
:101A90002046FFF7E3FF10BD212040064068704755
:101AA0008020374980310860704700218200364B22
:101AB0009A581160704700B50020FFF7BFFF00BDC6
:101AC000344A50547047F0B504460D46FF20F530B7
:101AD000604306462846FFF7B6FFFFF7ABFFA800B6
:101AE0002D490C50FFF7D8FF871929463846FFF7D4
:101AF000B5FFF0BD30B505460C4600202749085516
:101B000021462846FFF7DFFF00BF2448005D00287C
:101B1000FBD030BD10B504460120204908551D48B2
:101B2000005D002805D0A1001B4A50582146FFF750
:101B3000CAFFA00011490858002804D0A1000F4A8C
:101B40005058804703E0214615A003F085FB10BDE7
:101B500070B5002401260B48008E85B200BF08E056
:101B600028463040002802D0E0B2FFF7D3FF7600CD
:101B7000641C082CF4DB0348456370BD7405002029
:101B800000E100E04000004290000020FFFF000064
:101B90007000002068000020A005002060000020E8
:101BA000696E746572727570742025642063616C4F
:101BB0006C65642C2062757420686164206E6F20EF
:101BC00063616C6C6261636B20646566696E6564F9
:101BD0002E0A000010B5CC21F74803F0A3FC112118
:101BE000F5488030C16203210163152141630F2153
:101BF0008163C163F149016416214164122181644A
:101C00001422EF491830FEF7A9FA10BDEA488030D7
:101C1000C06A7047E8488030006B7047E648803003
:101C2000406B7047E4488030806B7047E2488030FA
:101C3000C06B7047E0488030006C7047DE488030F1
:101C4000406C7047DC488030806C7047DA498031E6
:101C5000C8627047D849803108637047D6498031DF
:101C600048637047D449803188637047D2498031D6
:101C7000C8637047D049803108647047CE498031CD
:101C800048647047CC4980318864704710B5044679
:101C900098222146C848FEF761FA10BDC9490140A3
:101CA00049004208C74B1A4011430846C649014043
:101CB00089008208C44B1A4011430846C3490140B9
:101CC00009010209C14B1A40114308460106FF22CF
:101CD0001202024012021143020AFF231B021A40A1
:101CE0001143020E114308467047F3B500256C1EE0
:101CF00016E00098465D3046FFF7D0FF0646002705
:101D00000BE020467040002804DA6000B0494840EB
:101D1000044600E0640076007F1C072FF1DD6D1C97
:101D200001988542E5D3E043FFF7B8FFFCBD10B54D
:101D3000A8A003F091FAADA003F08EFAB348816B2E
:101D40000020FFF7D2FF0446B048C06BA04203D189
:101D5000AFA003F081FA04E0B0A003F07DFA00BF69
:101D6000FEE710BDF021014009110207120E1143D8
:101D70000846CC21014089103322024092001143D1
:101D80000846AA2101404910552202405200114341
:101D90000846704710B541098A00874B9A584B0195
:101DA000C41A0123DB07E3409A438B00824CE250C4
:101DB00000BF10BD10B541098A007F4B9A584B01F6
:101DC000C41A0123DB07E3401A438B007A4CE2502C
:101DD00000BF10BDFFB505460E46174600240FE0B4
:101DE00028462041C007C00F002804D02046F53007
:101DF000FFF7E0FF03E02046F530FFF7CBFF641C60
:101E0000032CEDDD00240FE030462041C007C00F59
:101E1000002804D02046F930FFF7CCFF03E020462D
:101E2000F930FFF7B7FF641C032CEDDD00240FE051
:101E300038462041C007C00F002804D02046FD309E
:101E4000FFF7B8FF03E02046FD30FFF7A3FF641C57
:101E5000032CEDDD00240FE003982041C007C00FE4
:101E6000002804D0E01DFA30FFF7A4FF03E0E01DD6
:101E7000FA30FFF78FFF641C032CEDDDFFBDFFB5CB
:101E800005460E46174600240FE028462041C007AD
:101E9000C00F002804D0E01DFE30FFF78BFF03E0E9
:101EA000E01DFE30FFF776FF641C012CEDDD002401
:101EB00011E030462041C007C00F002805D0204661
:101EC000FF300830FFF776FF04E02046FF3008308F
:101ED000FFF760FF641C012CEBDD002411E03846A5
:101EE0002041C007C00F002805D02046FF300A302F
:101EF000FFF760FF04E02046FF300A30FFF74AFF9B
:101F0000641C012CEBDD002411E003982041C00784
:101F1000C00F002805D02046FF300C30FFF74AFFE5
:101F200004E02046FF300C30FFF734FF641C012C26
:101F3000EBDDFFBD30B589B005462022474901A839
:101F4000FEF70CF9002411E02846E040C007C00F5E
:101F5000002805D0610001AA505AFFF71BFF04E0DA
:101F6000610001AA505AFFF725FF641C0F2CEBD922
:101F700009B030BD30B589B005462022374920313F
:101F800001A8FEF7EBF8002411E02846E040C00766
:101F9000C00F002805D0610001AA505AFFF70AFFC0
:101FA00004E0610001AA505AFFF7F4FE641C0F2CF4
:101FB000EBD909B030BD0000C0050020006A180050
:101FC0001C5A000055555555333333330F0F0F0F3F
:101FD000B71DC1040D0A2D2D2D2D2D2D2D2D2D2D8F
:101FE0002D2D2D2D2D2D2D2D2D0D0A0056616C69B9
:101FF000646174696E672070726F6772616D2069C9
:102000006E746567726974792E2E2E00C0FF000011
:10201000435243204F4B0D0A000000000D0A50723E
:102020006F6772616D6D696E67204572726F7220A5
:102030002D2043524320444F4553204E4F54204DB2
:1020400041544348202D2048616C74696E672045D7
:102050007865637574696F6E0D0A0000305A000070
:1020600000B5FF20F630FFF795FEFF20F730FFF7B1
:1020700091FEFF20F830FFF78DFEFF20F930FFF7CB
:1020800089FEFF20FA30FFF795FEFF20FB30FFF7B7
:1020900081FEFF20FC30FFF78DFEFF20FD30FFF7B3
:1020A00079FEFF20FE30FFF785FEFF20FF30FFF7AF
:1020B00081FEF748FFF77EFE01204002FFF77AFE1F
:1020C000F348801CFFF766FEF148C01CFFF762FE74
:1020D000EF48001DFFF76EFE81208000FFF76AFECB
:1020E0000020EC490860EC48FFF764FE00BDF3B542
:1020F00081B00F4600200090019EB800019E821919
:102100003146E6A003F0A8F8F0A003F0A5F80024FB
:102110000CE0002507E0A00030580121A9408843C9
:10212000A10070506D1C202DF5DB641CBC42F0D367
:1021300000241DE0002518E0A00030580121A9402E
:102140000840002809D0A00033582A462146E5A0BF
:1021500003F082F80098401C0090A0003058012144
:10216000A9400843A10070506D1C202DE4DB641CC5
:10217000BC42DFD300241FE000251AE0A000305845
:102180000121A94008400121A940884209D0A000AE
:1021900033582A462146DFA003F05EF80098401C21
:1021A0000090A00030580121A9408843A100705040
:1021B0006D1C202DE2DB641CBC42DDD37C1E1DE0C7
:1021C0001F2518E0A00030580121A9400840002830
:1021D00009D0A00033582A462146DAA003F03CF883
:1021E0000098401C0090A00030580121A9400843ED
:1021F000A10070506D1E002DE4DA641E002CDFDAA1
:102200007C1E1FE01F251AE0A00030580121A940C4
:1022100008400121A940884209D0A00033582A462D
:102220002146D4A003F018F80098401C0090A000AC
:1022300030580121A9408843A10070506D1E002D27
:10224000E2DA641E002CDDDA002416E0002511E03D
:10225000A00030580121A9400840002809D0A00062
:1022600033582A462146CFA002F0F6FF0098401CC2
:1022700000906D1C202DEBDB641CBC42E6D3D5A086
:10228000009902F0E9FF0098FEBD30B50546002434
:1022900011E028462041C007C00F002805D0204685
:1022A000FF30ED30FFF786FD04E02046FF30ED30D3
:1022B000FFF770FD641C062CEBD930BD30B5054628
:1022C000002411E028462041C007C00F002805D097
:1022D00071497539081BFFF76DFD04E06E497539CA
:1022E000081BFFF757FD641C042CEBD9052411E0F3
:1022F00028462041C007C00F002805D0664975391F
:10230000081BFFF747FD04E063497539081BFFF719
:1023100051FD641C062CEBD930BD30B505460024B8
:1023200011E028462041C007C00F002805D05A49B7
:10233000C91C6018FFF73EFD04E05749C91C60182E
:10234000FFF728FD641C042CEBD9052411E0284676
:102350002041C007C00F002805D04F49C91C601894
:10236000FFF718FD04E04C49C91C6018FFF722FD77
:10237000641C062CEBD930BD30B50546002411E0B5
:1023800028462041C007C00F002805D042490F3120
:10239000081BFFF70FFD04E03F490F31081BFFF753
:1023A000F9FC641C042CEBD9A806C00F002804D04B
:1023B000E7208000FFF7EEFC03E0E7208000FFF756
:1023C000F9FC6806C00F002804D031482E30FFF712
:1023D000E1FC03E02E482E30FFF7ECFC30BD30B5B9
:1023E000054600240FE02846E040C007C00F002843
:1023F00004D020466B30FFF7DDFC03E020466B3055
:10240000FFF7C8FC641C0F2CEDDD30BD30B5054670
:1024100000240FE02846E040C007C00F002804D089
:1024200020467C30FFF7C6FC03E020467C30FFF7F7
:10243000B1FC641C072CEDDD30BD30B50546002431
:102440000FE02846E040C007C00F002804D0204617
:10245000D130FFF7AFFC03E02046D130FFF79AFC04
:10246000641C0F2CEDDD30BD70B505460E46002412
:102470000AE02046FF30D930FFF78CFC2046FF30C1
:102480001730FFF787FC641C0D2CF2DB0024B9E049
:10249000FF01000000002852920300000D0A0D0AFF
:1024A0005374617274696E67205352414D20746594
:1024B00073742066726F6D203078255820746F20F9
:1024C000307825582E2E2E0D0A00000054686973AE
:1024D0002074616B657320617768696C652E2E2EA0
:1024E0000D0A00000D0A4552524F52203120402063
:1024F00061646472657373202558206269742025B5
:1025000064202D2D2056616C756520697320255837
:10251000000000000D0A4552524F52203220402048
:102520006164647265737320255820626974202584
:1025300064202D2D2056616C756520697320255807
:10254000000000000D0A4552524F52203320402017
:102550006164647265737320255820626974202554
:1025600064202D2D2056616C7565206973202558D7
:10257000000000000D0A4552524F522034204020E6
:102580006164647265737320255820626974202524
:1025900064202D2D2056616C7565206973202558A7
:1025A000000000000D0A4552524F522035204020B5
:1025B00061646472657373202558206269742025F4
:1025C00064202D2D2056616C756520697320255877
:1025D000000000000D0A5352414D205465737420D1
:1025E000436F6D706C657465202D2D20256420452A
:1025F00072726F72730D0A00FF21E531081BFFF73D
:10260000D9FB641CAC42F7D9002405E02046FF301A
:102610001730FFF7BFFB641CB442F7D970BD70B52B
:1026200005460E46002411E03046E040C007C00FCA
:10263000002805D02046FF30C530FFF7BBFB04E083
:102640002046FF30C530FFF7A5FB641C042CEBDDF2
:10265000002411E02846E040C007C00F002805D044
:102660002046FF30CA30FFF7A5FB04E02046FF30CC
:10267000CA30FFF78FFB641C042CEBDD70BD70B516
:1026800005460E46002411E03046E040C007C00F6A
:10269000002805D0FF215931081BFFF78BFB04E010
:1026A000FF215931081BFFF775FB641C042CEBDD7F
:1026B000002411E02846E040C007C00F002805D0E4
:1026C000FF215431081BFFF775FB04E0FF21543153
:1026D000081BFFF75FFB641C042CEBDD70BD70B5BD
:1026E00005460E46002411E02846E040C007C00F12
:1026F000002805D02046FF30E630FFF75BFB04E002
:102700002046FF30E630FFF745FB641C042CEBDD70
:10271000002411E03046E040C007C00F002805D07B
:10272000FF211631081BFFF745FB04E0FF2116319E
:10273000081BFFF72FFB641C052CEBDD70BDF8B503
:10274000F94C650DF948006A2040F84908620846CE
:10275000C06B2840C8630846006AF549A143084396
:10276000F2490862F3484862F3488862F348C86255
:10277000F3480863F3484863F34888630846C06B2E
:10278000F249A9430843E949C863FF20A930FFF78C
:1027900001FBFF20AA30FFF70DFB3F210846FFF7A2
:1027A0009EFF07210846FFF75FFE00210846FFF75E
:1027B00036FF00210846FFF762FF0020FFF7EAFA24
:1027C0000120FFF7E7FA6020FFF7E4FAFF2010305E
:1027D000FFF7E0FAFF20EC30FFF7DCFA6420FFF7A8
:1027E000D9FA6520FFF7D6FA6620FFF7D3FA612001
:1027F000FFF7E0FA0020D6490860D648D6490860BD
:102800006720FFF7D7FA0B260227F002F9010843E9
:10281000D249086005200090D14900980860FF2047
:102820000E30FFF7B7FAFF200F30FFF7B3FA0020A2
:10283000FFF72BFDF020FFF7BDFA5D20C000FFF78A
:10284000B9FAC848FFF7B6FAC648401CFFF7B2FA13
:102850000120C5490860F8BD70B5C44C650DB3488A
:10286000006A2040B14908620846C06B2840C8632E
:102870000846006ABE49A1430843AC490862AD4816
:102880004862AD4840308862BA48C862BA480863B6
:10289000BA484863BA4888630846C06BB949A94337
:1028A0000843A249C8630020FFF784FA0120FFF71C
:1028B00081FA0D20FFF793FD2620FFF7A7FD50209A
:1028C000FFF7BBFDEE20FFF775FAEF20FFF772FA76
:1028D000FF200E30FFF75EFAFF200F30FFF75AFAA5
:1028E0008420FFF767FA05269D4806600A2100202C
:1028F000FFF795FE0020FFF7C8FCF020FFF75AFA1B
:1029000001204003A0490860F002086070BD10B5C6
:102910000A467F2383435901844B9B6F9B4C234082
:10292000824CA36723469B6F0B43A36710BD7F2296
:10293000824351037D4A926F7F235B039A437B4B13
:102940009A671A46926F0A439A67704710B5F02348
:10295000034019090207754B9B6F1B091B01734C40
:10296000A36723469B6F0B43A3672346DB6F1B01C3
:102970001B09E3672346DB6F1343E36710BD00B514
:102980007D20C000FFF716FA8148FFF713FA804850
:10299000401CFFF70FFA7E48801CFFF70BFA8020DF
:1029A0007C4908607F20FFF7D1FF3F20FFF7BFFF82
:1029B00000217F20FFF7ABFF00BD70B50346002468
:1029C00000200325AD021D402C010F252D031D40C5
:1029D0002D0B28433F252D011D40284395022843F8
:1029E000CD0228431D072D0C2843E5436A4E356070
:1029F000C5436A4E356070BD002824D14B49C96F6C
:102A000004221143494AD1671146C96F02229143FA
:102A1000464AD1671146803109680122D207114325
:102A2000424A803211604149C96F49084900803AE1
:102A3000D1671146803109680722120711433B4ACA
:102A400080321160F6E0012822D13849C96F022294
:102A50001143364AD1671146C96F04229143334A64
:102A6000D167114680310968C20711432F4A80326D
:102A700011602E49C96F8143803AD1671146803178
:102A80000968072212071143284A80321160D1E0F9
:102A9000022823D12549C96F04221143234AD16753
:102AA0001146C96F02229143204AD16711468031F5
:102AB00009684A0052081D4980310A608039C96F8F
:102AC00001221143194AD167114680310968072252
:102AD00012071143154A80321160ABE003285FD121
:102AE0001249C96F04221143104AD1671146C96FB8
:102AF000022291430D4AD167114680310968C2070D
:102B000011430A4A803211600849C96F49084900D7
:102B1000803AD167114680310968012292079143BA
:102B2000024A8032116085E00000FCFFC0050020F1
:102B3000E0FF5040882142003100048881403B1171
:102B400002817E024448ED0300000160032EE0FF95
:102B5000000038520FA0000000003C5200000C5250
:102B600000002452E9020000000040520000FEFF75
:102B7000F0FF000081400C100281180044C87F0162
:102B8000010001700008E0FF0000105217F0FFFF85
:102B9000E903000000002C520000145200001852FB
:102BA000042822D1FB49C96F04221143F94AD16795
:102BB0001146C96F02229143F64AD167114680310E
:102BC000096842071143F34A80321160F149C96F25
:102BD00049084900803AD167114680310968C20628
:102BE0009143EC4A8032116024E0052822D1E94962
:102BF000C96F04221143E74AD1671146C96F022207
:102C00009143E44AD167114680310968C2071143F4
:102C1000E04A80321160DF49C96F49084900803AB3
:102C2000D167114680310968032252079143D94A7E
:102C300080321160704710B50A467F2383435901E3
:102C4000D44B9B6F7F246403A343D24CA3672346DA
:102C50009B6F0B43A36710BD10B5044600213F20B6
:102C6000FFF7E9FF0420FFF7C7FE01221146FF200E
:102C7000E130FFF7A2FEFD208000FFF79BF810BDBA
:102C800070B503460C467F25292676063560C24D71
:102C90002868C24D29680D042D181D60C04D286894
:102CA000C04D29680D042D182560BF4D2868BF4D03
:102CB00029680D042D18156000253560BC4D356060
:102CC00070BDBC480068012189020840002804D07A
:102CD000B84800888005800D70470020FCE7B648A2
:102CE00000787047B54800780007000F7047F0B5CE
:102CF00005460E461746002411E028462041C0072D
:102D0000C00F002805D0FF21B031081BFFF752F893
:102D100004E0FF21B031081BFFF73CF8641C042CD1
:102D2000EBD9002411E030462041C007C00F002835
:102D300005D0FF21B631081BFFF73CF804E0FF2166
:102D4000B631081BFFF726F8641C042CEBD9012FC1
:102D500003D19B48FFF72EF802E09948FFF71AF8D5
:102D6000F0BD70B505460E46002411E03046E04047
:102D7000C007C00F002805D0914990316018FFF7B7
:102D800019F804E08E4990316018FFF703F8641CCD
:102D9000032CEBDDF006C00F002804D088489430E7
:102DA000FEF7F8FF03E086489430FFF703F80024AD
:102DB00011E02846E040C007C00F002805D0D72109
:102DC00089006018FEF7F6FF04E0D721890060183B
:102DD000FEF7E0FF641C012CEBDD022411E0284625
:102DE000E040C007C00F002805D075499331601836
:102DF000FEF7D0FF04E0724993316018FEF7DAFF66
:102E0000641C042CEBDD70BD28206E490860202076
:102E10000860704710B500210022252126E000221D
:102E200021E08B005B4CE358012494402340002BAD
:102E300001D1212000E02020624B186002240346CB
:102E4000A34318465F4B1860042318435D4B18607A
:102E500004240346A34318465A4B18600223184320
:102E6000584B1860521C202ADBDB491E0029D6DA99
:102E700010BDF7B584B00546E806C00E039000BF4C
:102E80000598C006C00E029000BF0698C006C00E8E
:102E9000019000BF0398FEF765FF009000BF029805
:102EA000FEF760FF064600BF0198FEF75BFF044691
:102EB00000BF0023002700BF00BF009800907820CB
:102EC000204040020343F00003430098C00803433E
:102ED00080202040C0090743304803603A4807601B
:102EE00007B0F0BDF0B585B00546002600271720D5
:102EF00003908C2002902846029902F01FFB1330A9
:102F0000C0B200902846029902F018FB0D462846F0
:102F1000039902F013FB41004018C019C0B20190A0
:102F20002846039902F00AFB022800DB00BF28466E
:102F3000039902F003FB8819C4B20F2C00DD641C56
:102F4000224601990098FFF794FF05B0F0BD0146B5
:102F50000020CA07120E104302220A4052011043F9
:102F600004220A40D200104308220A4052001043B3
:102F700010220A405208104320220A40D20810436F
:102F800040220A405209104380220A40D2091043CD
:102F900070470000C00500200000185200001C52BD
:102FA0000000285200002C52000030520000345221
:102FB000FF3F0000000040520000545200003C520D
:102FC000D60200000000585200002052F0B585B033
:102FD00006460C4615461F46B548866118304460C3
:102FE0008560C760B24918310A980861B0488068A6
:102FF000B049084003463046FFF7A9FF0006C00E5F
:1030000004902046FFF7A3FF0006C00E0390284659
:10301000FFF79DFF0006C00E02903846FFF797FFAE
:103020000006C00E01900A98FFF791FF0006C00E3F
:1030300000900498800603430398400503430298D8
:10304000000403430198C002034300988001034336
:10305000202003439648836005B0F0BD38B5FEF7E5
:10306000B9FDFDF7DDF9FDF7C0FDFEF7CBFCFEF77E
:10307000F7FF0023012219461846FEF700FF06233A
:10308000002219461846FEF7A5FEFF200130FEF784
:1030900071FF8948FEF74EFF8848FEF78BFE844A91
:1030A000D16A106BFFF75DFE8448001DFEF782FEBB
:1030B0008348FEF77FFE3120FEF77CFE3020FEF7CE
:1030C00079FE2F20FEF766FE2E20FEF773FE2D20E0
:1030D000FEF760FE2C20FEF76DFE2B20FEF76AFE49
:1030E0002A20FEF767FE75480930FEF763FE744834
:1030F0004630FEF75FFE2920FEF75CFE022403E067
:103100002046FEF757FE641C092CF9DBFFF717FB7E
:10311000FFF735FC664A916C506C0022FFF7E7FD23
:103120006348C06B00906248836B1F21426B084666
:10313000FFF74CFF61482138FEF73CFE60489130B4
:10314000FFF7D0FE7D200001FFF786FDFFF762FE4E
:10315000FFF75AFE38BDF8B500202921490608605E
:1031600058480860012700E07F1C57488742FBDB76
:103170007F2029214906086054480468544805689E
:1031800028040619084604685248056828040019EE
:1031900000907003009902F0C7F9F8BD18B54448D3
:1031A00018300069424C18340090E368A2686168E6
:1031B000183CA069FFF70AFF18BD70B503460C461E
:1031C0007F25292676063560404D2868404D2968C0
:1031D0000D042D181D60404D2868404D29680D04D0
:1031E0002D182560354628683A4D29680D042D189C
:1031F000156000253560334D356070BD10B5002178
:103200000BE003689B0F0468E40E6340DA07D20FFB
:1032100003685B0013430360491C0829F1DB10BD00
:1032200023488038806F012109058843204980396F
:10323000886770471E488038806F01210905084360
:103240001B4980398867704719488038006C09210C
:10325000C906884316498039086470471448803885
:10326000006C0921C9060843114980390864704778
:103270000F4800680121C90408430D4908607047E0
:103280000B4800680121C904884309490860704758
:1032900007480068032149048843054908607047CE
:1032A0000348006803214904084301490860704746
:1032B000400600201F000080FFFF00007B0400008C
:1032C00029020000FF3F000050C300000000185218
:1032D00000001C5200000452000020520000245242
:1032E000F8B504460D4616461F46002D01D0002EA7
:1032F00001D10020F8BD25606660A7602A467243B0
:10330000D100A06802F00EF90120F3E70146086839
:103310007047014648687047F8B504460E461746A0
:103320001D463A463146204600F09FF9002800D15C
:10333000F8BD3A463146204600F0A2F9C000A16827
:10334000081803C8696028600120F1E7FFB581B063
:1033500004460F460B9E0A9D39462046039A00F00C
:1033600084F9002801D105B0F0BD39462046039A02
:1033700000F086F9C000A168081860C00120F2E7DB
:10338000FFB587B005460E46174628680590686861
:10339000049031680598814203D171680498814294
:1033A00002D000200BB0F0BD38460A9B049A059964
:1033B000FFF796FF002800D1F4E7002414E0E100B5
:1033C000B068401803C803910290E100A868411852
:1033D00003C901910090039B029A00F0CFF8E3002B
:1033E000BA68D21803C2641C049905984843A042E5
:1033F000E5D80120D6E7FFB58DB007460C46386802
:103400000B9060680A907868099021680998814259
:1034100002D0002011B0F0BD109B0A9A0B990F98B2
:10342000FFF75EFF002804D198A001F015FF0020EF
:10343000F0E7002008904CE00020079042E00020D8
:10344000069038E02046079A069900F019F9C00066
:10345000A168081860C83846069A089900F010F963
:10346000C000B968081803C82A4633460191009085
:1034700000F08BF805910490079A08990F9800F0D6
:10348000FFF8C1000F988068401803C803910290AC
:10349000059B049A00F072F805460E46079A0899B3
:1034A0000F9800F0EDF8C1000F988068401860C0D8
:1034B0000698401C0690099906988842C2D307983E
:1034C000401C07900A9907988842B8D30898401C76
:1034D00008900B9908988842AED301209AE7FEB570
:1034E00004460D46164627686068019001987843A7
:1034F0000090334639462846019AFFF7F1FE00282E
:1035000000D1FEBD009BDA00A168A868FCF726FE8A
:103510000120F6E7F7B586B006460F4630680590FD
:10352000706804903846089B059A0499FFF7D8FE06
:10353000002801D109B0F0BD00200105CA1703928F
:103540000291002415E000250FE002AB2A46214637
:103550003046FFF7E1FE0399029822460191009060
:1035600029463846FFF7F2FE6D1C04988542ECD3DD
:10357000641C05988442E6D30120DBE730B504469D
:103580000D46A0182946594130BDF0B51FB48CB086
:1035900004460D4600200146001BA94102DA2046E0
:1035A000294602E000216042A941079106900022CD
:1035B00013460E990F98511A834102DA0F990E980B
:1035C00005E000210E9A0F98524281411046059164
:1035D000049000210291039100271CE03A46049ECA
:1035E000059809903046099901F0EBFD0123184038
:1035F00000214840494008430CD03A4607990698B4
:103600000A910B9001F0CDFD039B029A801859415D
:10361000039102907F1C402FE0D303990A03029884
:10362000000D1043091501910090002108462A461B
:10363000611A824101DA012200E0002200270F997D
:103640000E98C01BB94101DA012000E00020424081
:10365000002A07D000220199009840428A41114671
:1036600011B0F0BD01990098FAE703461868884246
:1036700004D95868904201D9012070470020FCE726
:103680000346586848438018704700006D617472A3
:103690006978206D756C7469706C790A000000009F
:1036A000F0B51FB48CB004460D4600200146001B47
:1036B000A94102DA2046294602E000216042A941E0
:1036C00007910690002213460E990F98511A8341D4
:1036D00002DA0F990E9805E000210E9A0F985242D7
:1036E0008141104605910490002102910391002729
:1036F0001CE03A46049E059809903046099901F06D
:1037000060FD0123184000214840494008430CD087
:103710003A46079906980A910B9001F042FD039BE7
:10372000029A80185941039102907F1C402FE0D3E8
:1037300003990A030298000D1043091501910090A6
:10374000002108462A46611A824101DA012200E07E
:10375000002200270F990E98C01BB94101DA012001
:1037600000E000204240002A07D000220199009882
:1037700040428A41114611B0F0BD01990098FAE724
:1037800010B50146FB480A461CCA1CC0012010BDEA
:10379000F0B591B004460F462068032802D00020FF
:1037A00011B0F0BD002000F025FB0F910E9000201D
:1037B00000F020FB0D910C90002000F01BFB0B9102
:1037C0000A90002000F016FB09910890002000F0FC
:1037D00011FB07910690002000F00CFB059104906E
:1037E0000EAB002211462046FFF796FD0CAB0022DF
:1037F00001212046FFF790FD0AAB0022022120465E
:10380000FFF78AFD08AB012200212046FFF784FD67
:1038100006AB012211462046FFF77EFD04AB0122D4
:1038200002212046FFF778FD079B069A0B990A981C
:10383000FFF736FF05460E46059B049A0D990C9836
:10384000FFF72EFF2A4633460191009000F0DDFA83
:103850000290039100220191009011463846FFF733
:1038600075FD059B049A0F990E98FFF719FF0191BA
:103870000090099B089A0B990A98FFF711FF0546DB
:10388000019B009A00F0C1FA02900391002201917D
:10389000009001213846FFF759FD099B089A0D99C0
:1038A0000C98FFF7FDFE05460E46079B069A0F99FA
:1038B0000E98FFF7F5FE2A4633460191009000F07E
:1038C000A4FA02900391002201910090022138464F
:1038D000FFF73CFD012063E7F0B58BB007460C46CF
:1038E0003868032808D17868012805D120680328A2
:1038F00002D16068032802D000200BB0F0BD002088
:1039000000F078FA09910890002000F073FA07910E
:103910000690002000F06EFA0591049008AB00229A
:1039200011463846FFF7F8FC06AB00220121384665
:10393000FFF7F2FC04AB002202213846FFF7ECFC53
:10394000089A1046099B1946FFF7AAFE05460E463F
:10395000012000F04FFA2A4633460191009000F012
:1039600054FA0290039100220191009011462046E2
:10397000FFF7ECFC079B069A09990898FFF790FE61
:103980000A4600214042914101220191009000210C
:103990002046FFF7DBFC059B049A09990898FFF77E
:1039A0007FFE002240428A410192009002220021C3
:1039B0002046FFF7CBFC06A80FC8FFF771FE0246B2
:1039C00000205542884100220121009501902046A7
:1039D000FFF7BCFC069A1046079B1946FFF760FEEE
:1039E00005460E46012000F005FA2A4633460191AD
:1039F000009000F00AFA02900391012201910090D8
:103A000011462046FFF7A2FC059B049A07990698E9
:103A1000FFF746FE0A4600214042914102220191F1
:103A2000009001212046FFF791FC099B089A059917
:103A30000498FFF735FE02460020554288410022D7
:103A40000221009501902046FFF780FC04A80FC8D2
:103A5000FFF726FE002240428A4101920090012297
:103A600002212046FFF772FC049A1046059B194676
:103A7000FFF716FE05460E46012000F0BBF92A4668
:103A800033460191009000F0C0F9029003910222A8
:103A90000191009011462046FFF758FC01202CE7C9
:103AA000F0B585B005460E461746002000F0A2F995
:103AB00003910290002410E002AB324621462846D2
:103AC000FFF72AFC039902980022019100902146F9
:103AD0003846FFF73BFC601C44B22868A042EBD894
:103AE00005B0F0BDF0B587B00746002000F082F9C0
:103AF00005910490002000F07DF9039102900026CA
:103B000019E002AB002231463846FFF705FC039D61
:103B1000029C2B46224620462946FFF7C1FD02465D
:103B20000B46019100900599049800F067F9059102
:103B30000490701C46B23868B042E2D805990498E7
:103B400000F07DF907B0F0BDF0B587B00746002062
:103B500000F050F90591049004AB0022114638465C
:103B6000FFF7DAFB3846FFF7BDFF03910290002410
:103B700017E000009006002004AB002221463846E2
:103B8000FFF7CAFB039B029A0599049800F044F9D9
:103B900000220191009021463846FFF7D7FB601CB8
:103BA00044B23868A042E7D807B0F0BDF3B591B091
:103BB000002000F01FF90D910C90002000F01AF980
:103BC0000B910A90002000F015F90991089000204F
:103BD00007906BE0B74B0EAA12991198FFF70BFCF8
:103BE0000EA8FFF77FFF05910490099B089A05999D
:103BF000049800F00AF90D460446002000F0FAF897
:103C00002A46201A8A4103DA00276642AF4101E0C2
:103C100026462F46642000F0EDF804460D460120AC
:103C200000F0E8F822462B460391029000F0F4F8E9
:103C3000301A8F4100DA3EE0059904980991089006
:103C4000002628E00CAB002231461298FFF764FBF7
:103C50000AAB002231460EA8FFF75EFB802000F081
:103C6000C9F8044622460B460B990A9800F0D4F88E
:103C700002460B46019100900D990C9800F0BEF899
:103C80000290039100220191009031461298FFF7B3
:103C90005DFB701C46B212980068B042D2D81298F0
:103CA000FFF752FF0798401C00B207907D21C90022
:103CB000079888428EDB00BF13B0F0BDF0B595B019
:103CC00007467D487D4B0122416812A8FFF708FB9B
:103CD00079487B4B012241680FA8FFF701FB76482A
:103CE0004268784B01680CA8FFF7FAFA00247AE0E2
:103CF000002C17D100250DE0012000F07BF8029088
:103D00000391002201910090294612A8FFF71EFBA3
:103D1000681C45B21298A842EED812A96648FFF76F
:103D200045FF40E0012C3AD1012000F063F8002269
:103D300001910090114612A8FFF708FB022000F045
:103D400059F8002240428A4101920090002201214C
:103D500012A8FFF7FBFA012000F04CF800220191B5
:103D60000090022112A8FFF7F1FA0FAA00213846AD
:103D7000FFF796FE0CA90FA8FFF7AEFD524B09AA5C
:103D80004D490CA8FFF737FB504B06AA0CA909A810
:103D9000FFF731FB12A906A8FFF708FF03E012A9FD
:103DA0003846FFF7F5FC12A8FFF7CEFE002000F022
:103DB00021F805910490002510E004AB002229466B
:103DC00012A8FFF7A9FA05990498224601910090DC
:103DD00029463846FFF7BAFA681C45B23868A84247
:103DE000EBD8601C44B234484068A04280D801201F
:103DF00015B0F0BD02461005C117704730B5044636
:103E00000D46A0182946594130BD30B504460D462F
:103E10002946A01A994130BDFEB504460D46164606
:103E20001F46210B28050843210532463B460091D9
:103E300001900846019901F0D7F903B0F0BDF0B543
:103E400089B006460F4634463D460120FFF7D2FFB3
:103E5000079106901AE00220FFF7CCFF22462B467E
:103E60000591049030463946FFF7D6FF02460B46CF
:103E70000191009020462946FFF7C0FF0391029070
:103E8000059B049AFFF7C8FF04460D4630463946A5
:103E9000079B069AFFF704FC22462B4605910490E7
:103EA000FFF7BAFF001BA941D5DB2046294609B020
:103EB000F0BD0000A807002090060020A00600200A
:103EC000B8060020D0060020180700206007002058
:103ED000F0B51FB48CB004460D4600200146001B0F
:103EE000A94102DA2046294602E000216042A941A8
:103EF00007910690002213460E990F98511A83419C
:103F000002DA0F990E9805E000210E9A0F9852429E
:103F100081411046059104900021029103910027F0
:103F20001CE03A46049E059809903046099901F034
:103F300048F90123184000214840494008430CD06B
:103F40003A46079906980A910B9001F02AF9039BCB
:103F5000029A80185941039102907F1C402FE0D3B0
:103F600003990A030298000D10430915019100906E
:103F7000002108462A46611A824101DA012200E046
:103F8000002200270F990E98C01BB94101DA0120C9
:103F900000E000204240002A07D00022019900984A
:103FA00040428A41114611B0F0BD01990098FAE7EC
:103FB000F0B589B006460F4634463D46012000F074
:103FC0002DFE079106901AE0022000F027FE2246FF
:103FD0002B46059104903046394600F031FE0246EA
:103FE0000B46019100902046294600F01BFE0391EC
:103FF0000290059B049A00F023FE04460D463046CD
:104000003946079B069AFFF763FF22462B46059128
:10401000049000F015FE001BA941D5DB204629467F
:1040200009B0F0BDF3B595B0002000F0F7FD139195
:104030001290002000F0F2FD11911090002000F08D
:10404000EDFD0F910E90002000F0E8FD0D910C9019
:1040500012AB002211461598FFF75EF910AB012252
:1040600000211598FFF758F90EAB00220121159891
:10407000FFF752F90CAB012211461598FFF74CF9E6
:104080000F9B0E9A11991098FFF722FF059104904B
:104090000D9B0C9A13991298FFF71AFF0391029047
:1040A000059B049A00F0C5FD0B910A900D9B0C9A9C
:1040B0001399129800F0B6FD09910890042000F0C1
:1040C000ADFD019100900B9B0A9AFFF701FF05914E
:1040D00004900999089801910090009A1046019B5C
:1040E0001946FFF7F5FE03910290059B049A00F034
:1040F000A0FD07910690002000F090FD079B069A16
:10410000101A8B4107DA012000F088FD169A03C2CD
:10411000FEA001F0A1F8022000F080FD05910490BE
:1041200007990698FFF744FF02460B46019100905D
:104130000999089800F076FD03910290059B049A76
:1041400000F07EFD0D460446022000F067FD05915B
:10415000049007990698FFF72BFF02460B46019142
:1041600000900999089800F05DFD03910290059B6D
:10417000049A00F065FD06460F46002000F04EFD53
:104180002A46201A8A4103DB3846311BA8410CDA43
:10419000002000F043FD3A46301A8A4102DAE1A0DD
:1041A00001F05AF81698C0C001E0169830C00120FE
:1041B00017B0F0BD07B598B0002000F02FFD1791A3
:1041C0001690002000F02AFD15911490002000F0B8
:1041D00025FD139112901998401E41001898415ADC
:1041E00008460F9100F01AFD1191109000200F90D9
:1041F000B5E00F9841001898415A0846059100F023
:104200000DFD07910690119B109A00F012FD0A46D1
:104210008B068109194390110A910B900F98410068
:104220001898415A0846059100F0F8FC079106904D
:10423000119B109A00F0FDFC0A468B068109194378
:10424000901108910990084609A90EC9FFF740FE90
:1042500002460B460D910C901799169800F0E2FC5F
:10426000179116900F98401C1999884238D20F98D0
:10427000401C41001898415A0846059100F0CEFCB8
:1042800007910690119B109A00F0D3FC8A068009D2
:10429000104389110B910A900F9841001898415AC8
:1042A0000846059100F0BAFC07910690119B109A00
:1042B00000F0BFFC0A468B06810919439011089152
:1042C0000990084609A90EC9FFF702FE02460B46EF
:1042D0000D910C901599149800F0A4FC1591149070
:1042E0000F98801C1999884236D20F98801C410083
:1042F0001898415A0846059100F090FC07910690E5
:10430000119B109A00F095FC8A06800910438911D0
:104310000B910A900F9841001898415A0846059150
:1043200000F07CFC07910690119B109A00F081FC34
:104330008A06800910438911099108900B9B0A9AFB
:10434000FFF7C6FD02460B460D910C90139912988B
:1043500000F068FC139112900F98401C0F9019996F
:104360000F98884200D244E71998401E41001898DF
:10437000415A0846039100F051FC05910490119BAD
:10438000109A00F056FC0A468B06810919439011D9
:10439000089109901998401E41001898415A084602
:1043A000039100F03BFC05910490119B109A00F0E2
:1043B00040FC8A0680091043891107910690099BE9
:1043C000089AFFF785FD0D910C901998801E410009
:1043D0001898415A0846019100F020FC0391029080
:1043E000119B109A00F025FC8A0680091043891160
:1043F000079106901998801E41001898415A084666
:10440000019100F00BFC03910290119B109A00F0B7
:1044100010FC0A468B0681091943901104910590FE
:10442000084605A90EC9FFF753FD02460B46099140
:1044300008901799169800F0FCFB0B910A900D9BC1
:104440000C9A00F0F6FB0E900F9100220191009063
:1044500011463B48FEF77AFF1998401E4100189814
:10446000415A0846059100F0D9FB07910690119B2F
:10447000109A00F0DEFB0A468B0681091943901161
:104480000A910B901998801E41001898415A0846CD
:10449000059100F0C3FB07910690119B109A00F064
:1044A000C8FB0A468B0681091943901108910990AF
:1044B000084609A90EC9FFF70BFD02460B460D91F0
:1044C0000C901599149800F0B4FB0F910E900146D2
:1044D0000F9801220091019000211948FEF736FF44
:1044E0001399129802220191009000211448FEF7BE
:1044F0002DFF1998401E41001898415A0846059111
:1045000000F08CFB07910690119B1BE0496D6167E1
:10451000696E61727920456967656E76616C756553
:104520000A00000054776F204E65676174697665F4
:1045300020456967656E76616C7565730A000000D9
:10454000C0070020109A00F074FB0A468B06810910
:10455000194390110A910B901998801E41001898E8
:10456000405A059000F05AFB07910690119B109A53
:1045700000F05FFB8A0680091043891109910890B9
:104580000B9B0A9AFFF7A4FC02460B460D910C9078
:104590001599149800F04DFB0F910E9001460F985D
:1045A0000022009101900121FE48FEF7CFFE1998EC
:1045B000401E41001898405A039000F02FFB0591CF
:1045C0000490119B109A00F034FB8A068009104376
:1045D0008911099108901998401E41001898405A75
:1045E000039000F01BFB05910490119B109A00F0C2
:1045F00020FB8A0680091043891107910690099BC8
:10460000089AFFF765FC0D910C90189801880846F0
:10461000019100F003FB03910290119B109A00F0AE
:1046200008FB0A468B0681091943901106910790F1
:10463000189801880846019100F0F0FA0391029061
:10464000119B109A00F0F5FA0A468B06810919436E
:10465000901104910590084605A90EC9FFF738FC92
:1046600002460B46099108901799169800F0E1FA56
:104670000B910A900D9B0C9A00F0DBFA0F910E90B3
:1046800001460F980122009101901146C548FEF79E
:104690005DFE189841880846059100F0BFFA079121
:1046A0000690119B109A00F0C4FA0A468B06810905
:1046B000194390110A910B901898018808460591AA
:1046C00000F0ACFA07910690119B109A00F0B1FA35
:1046D0000A468B06810919439011089109900846F2
:1046E00009A90EC9FFF7F4FB02460B460D910C9089
:1046F0001599149800F09DFA0E900F9102220191E5
:1047000000900121A748FEF721FE1399129800227C
:10471000019100900221A348FEF718FE18984188E5
:104720000846059100F07AFA07910690119B109ABD
:1047300000F07FFA0A468B068109194390110A910D
:104740000B90189801880846059100F067FA0791C8
:104750000690119B109A00F06CFA8A0680091043AB
:104760008911099108900B9B0A9AFFF7B1FB024649
:104770000B460D910C901599149800F05AFA0F9170
:104780000E9001460F980122009101900221854868
:10479000FEF7DCFD189841880846039100F03EFAC8
:1047A00005910490119B109A00F043FA8A06800943
:1047B00010438A11014609920891189841880846C9
:1047C000039100F02BFA05910490119B109A00F0D0
:1047D00030FA0A468B068109194390110691079019
:1047E000084607A90EC9FFF773FB0D910C901898A6
:1047F00001880846019100F011FA03910290119B83
:10480000109A00F016FA8A06800910438A110146B0
:1048100007920691189801880846019100F0FEF968
:1048200003910290119B109A00F003FA8A06800906
:104830001043891105910490079B069AFFF748FBE6
:1048400002460B46099108901799169800F0F1F965
:104850000B910A900D9B0C9A00F0EBF90F910E90C2
:1048600001460F9802220091019011464D48FEF733
:104870006DFD01201BB000BDF0B593B0002000F02D
:10488000CDF911911090002000F0C8F90F910E9011
:10489000002000F0C3F90D910C90002000F0BEF94B
:1048A0000B910A90002000F0B9F9099108900020BE
:1048B00000F0B4F90791069010AB002211463A4877
:1048C000FEF72AFD0EAB012200213748FEF724FD3A
:1048D0000CAB002201213448FEF71EFD0AAB012279
:1048E00011463148FEF718FD08AB002202212E4880
:1048F000FEF712FD06AB012202212B48FEF70CFD4C
:10490000002000F08BF90022019100901146274809
:10491000FEF71CFD0D9B0C9A0F990E98FFF7D8FA25
:1049200004460D460B9B0A9A11991098FFF7D0FA8E
:10493000064622462B4600F07CF903910290079B25
:10494000069A0D990C98FFF7C3FA06460F46099B85
:10495000089A0B990A98FFF7BBFA044632463B4681
:1049600000F067F901910090039B029A00F068F94A
:104970000490059101220191009000210B48FEF75F
:10498000E5FC012000F04AF900220191009001218C
:104990000648FEF7DBFC0D9B0C9A0F990E98FFF76B
:1049A00097FA05E0C0070020CC070020D8070020B8
:1049B00004460D460B9B0A9A11991098FFF788FA46
:1049C000064622462B4600F034F903910290099BDB
:1049D000089A0F990E98FFF77BFA06460F46079B39
:1049E000069A11991098FFF773FA044632463B462F
:1049F00000F01FF901910090039B029A00F020F94A
:104A00000490059101220191009011469E48FEF705
:104A10009DFC012013B0F0BDF8B504460D461646C6
:104A20001F469A4830C0022000F0F8F8984A03C2A6
:104A3000022098490860394697A000F00DFC9F4B72
:104A4000032211469E48FEF74BFC002800D1F8BD1A
:104A50009B4A39463046FFF7ADFB9948FEF790FE7A
:104A6000002800D1F3E7974B032211469648FEF742
:104A700037FC002800D1EAE79348FFF71FF9934B72
:104A8000022211468048FEF72BFC002800D1DEE709
:104A9000FFF7F2FE0120DAE773B586B0012000F0DF
:104AA000BDF805460E46012000F0B8F805910490C7
:104AB00001241DE0204600F0B1F802460B460191AA
:104AC00000900799069800F0BBF802460B46039148
:104AD000029005990498FFF7FBF905910490284688
:104AE0003146059B049A00F09DF805460E46641C6D
:104AF000142CDFDB2846314608B070BDF7B586B010
:104B0000002000F08BF8079B069A801A994102DB7F
:104B1000002009B0F0BD012000F080F804462246D4
:104B20000B460799069800F084F806460F460120C8
:104B300000F074F8059104901FE0012000F06EF879
:104B40000391029030463946FFF7A6FF04462246FD
:104B50000B460799069800F073F801910090039BAB
:104B6000029A00F066F80591049030463946059B9C
:104B7000049A00F057F806460F46012000F04EF860
:104B800004460D460120C00200F048F802460B46DC
:104B90000191009005990498FFF79AF9039102900A
:104BA00000F061F8201A8D41C7DB0898C0C00120D1
:104BB000AFE770B588B00646002000F02FF80791E7
:104BC0000690002000F02AF80591049006A92E48CE
:104BD000FFF728FA002801D108B070BD04AA079990
:104BE0000698FFF78BFF002800D1F5E72749059BC2
:104BF000049A03C9FFF76CF901910090012000F0BD
:104C00000DF80446019B009A00F01AF803910290F7
:104C100000F029F8716030600120DDE702461005E0
:104C2000C117704730B504460D46A01829465941B2
:104C300030BD30B504460D462946A01A994130BD15
:104C4000FEB504460D4616461F46210B28050843AF
:104C5000210532463B46009101900846019900F03B
:104C6000C3FA03B0F0BD70B504460D460020FFF74F
:104C7000D5FF2A46201A8A4103DA00216042A94161
:104C800070BD20462946FBE7D8070020B000002071
:104C9000B8000020C00000206E756D626572206F44
:104CA000662073616D706C657320636F6C6C6563F7
:104CB0007465643A2025750A00000000E8070020AA
:104CC000C007002030080020CC0700207808002012
:104CD00038B50446207848490870608847490880FC
:104CE000207947490870444800780090684600F0F1
:104CF000E3F92046083000F0A5F900F0C6F938BD08
:104D00007CB5044601203F49087000F037F83EA00A
:104D100000F0A2FA00F01EF905460E46012001053A
:104D2000CA1701920091002020606060A060E060DE
:104D30006660256001990098E160A0607CBD10B5B7
:104D4000304900200856401C030000F021FE0514E5
:104D500004120813110001202A4908700CE0FCF726
:104D600023FB2548017825480088FCF7ACFE03E0CA
:104D700000BF00BF00BF00BF00BF10BD10B53AE0CC
:104D8000204900200856401C030000F001FE0532B7
:104D9000300419312F001948008800F055F81849DF
:104DA0000020085600F0D8F9FCF7FEFA1248017806
:104DB00012480088FCF787FE02201249087019E0AB
:104DC000FCF7FAFA002810D0FCF7FDFA0446FCF7CD
:104DD000F6FA204600F04FF800F0B4F8002803D0AF
:104DE00003200849087010BD00BF03E000BF00BFEA
:104DF00000BF00BF00BFC3E7C4000020C600002002
:104E0000C8000020C90000205265636569766564AA
:104E10002073756666696369656E742073616D7071
:104E20006C65732E20457374696D6174696E6720BB
:104E30007468652074696D6520636F6E7374616E4C
:104E400074206E6F772E0A0010B5044621467D202F
:104E5000C00000F069FB5249086000205149086019
:104E60005148524908800020514908605149086062
:104E70005149087010BD70B504464F4900200856CE
:104E8000401C030000F084FD0557042458595600C7
:104E900044480068400049490D5A4948854211D1AB
:104EA00084420FDA40496118091A88B200F08AF882
:104EB00000F0C0F80646304600F067F801203E4991
:104EC000087004E03748006840003C490C5236E066
:104ED000204600F07AF800F0ADF80546284600F0CC
:104EE00054F8802D12DC314800882F4988420DD1BA
:104EF0002E48058000202E4908602A49096888004C
:104F0000052100F011FB2B49086012E027480088BA
:104F1000254988420DD026480068401C2449086075
:104F20000846006823490968884202D902202249BC
:104F3000087004E000BF00BF00BF002070BD00BFCC
:104F40000120FBE71C480078022801D101207047AE
:104F50000020FCE77CB51248006800F012F8044617
:104F60001048164A03682046FFF756FD002000F05F
:104F700008F8019100906846FFF71BFE0199009820
:104F80007CBD02461005C1177047064909684900F3
:104F90000A4A505203490968491C024A1160704785
:104FA000CC000020D4000020FF030000D800002027
:104FB000DC000020E0000020D00000209808002045
:104FC000FF0100001D490880704710B501461B48CD
:104FD000008881422ADA194B1B885A1AD317DB0D35
:104FE0009B18581242025218144B1B889B1A421CE1
:104FF00052025218114C2488121B934204D24202CE
:1050000052180E4B1A8004E0421C520252180B4BED
:105010001A800A4A12880A4B9A4206DD074A128809
:10502000FF3AFF3A023A054B1A8001E0034801803B
:10503000012010BD0148008870470000E4000020F6
:10504000FF03000010B504461C2221461848FBF758
:1050500085F810BD70B50546002411E028462041B2
:10506000C007C00F002805D01149091D085700F0DE
:1050700044F804E00E49091D085700F057F8641C75
:105080000B480068A042E9D870BD10B508480C3044
:1050900008490968445C2046FFF7DCFF0448816842
:1050A00004480068401C00F03FFA0248016010BD4F
:1050B000A82F0020E800002010B5044635482178CC
:1050C000017000F058F810BD10B504462046FCF7FA
:1050D000A9FA0120A0403049098881432E48018067
:1050E0000120A0402D49098808432C49088000F080
:1050F00042F82046FCF78EFA10BD10B50446204653
:10510000FCF790FA0120A0402349098881432248F6
:1051100001800120A0402149098808431F490880D7
:1051200000F029F82046FCF77DFA10BD10B50446C2
:105130000120A04018490988084317490880012028
:10514000A0401649098881431448018000F013F8F3
:105150002046FCF75FFA10BD10B504462046FFF765
:10516000B3FF0C4801787D20C000FCF7C3FC20464B
:10517000FFF7DCFF10BD10B507480088FCF7FAFE0A
:1051800006480088FCF7D6FEFDF744FEFDF73CFE1E
:1051900010BD0000EC000020EE000020F000002018
:1051A000704710B5202A04DB0146203A91400020C8
:1051B00010BD914020239C1A0346E34019439040C0
:1051C00010BD10B5202A06DB0846CB17203A104147
:1051D000C1170B4306E00B4620241341D040A21A0E
:1051E00091400843194610BD70B500252C46AD1AF4
:1051F0009C4112DA00252C462D1A8C4102DA00F06F
:1052000081FA70BD002440428C41214600F07AFAB8
:10521000002440428C41214619E000252C462D1ADD
:105220008C410ADA002452429C41234600F06AFA7B
:10523000002440428C41214670BD002452429C41D2
:105240004042234600248C41214600F05BFA0024B2
:1052500052429C41234670BD0FB4054910B503AAC4
:10526000029800F029FB10BC08BC04B018470000ED
:1052700000000020F7B5002575291068009914A6D4
:1052800011D0C046C046002802DA404211A608E00C
:10529000009909688A0701D50FA602E0490704D5DD
:1052A0000EA6012501E0C046C046009F0024243719
:1052B00004E000F015FB30313955641C0028F8D1AA
:1052C0002B4632462146009800F09DFAFEBD0000B4
:1052D000000000002D0000002B0000002000000056
:1052E000F7B5D21D0025D20815A6D200F52905CAAA
:1052F00011D0002A05DA00214042914111A60A4648
:1053000008E0009909688B0701D50FA602E049075C
:1053100001D50EA601251146009F0024243704E084
:1053200000F0B3F930323A55641C02460A43F7D113
:105330002B4632462146009800F065FAFEBD00007B
:10534000000000002D0000002B00000020000000E5
:1053500070B504460D4621461068C046C0462188F7
:10536000090502D50F4A7A4402E00E4A7A440E3209
:1053700023460021243305E006070009360F965D19
:105380005E54491C0028F7D120780023000705D57A
:10539000702D03D0002901D002231132204600F0E5
:1053A00032FA70BD06070000F8B50F46054600202A
:1053B00028622846E9688847002852D0252802D06C
:1053C0006A68A96849E0E9682846002688476C2889
:1053D00004460AD0682C08D04C2C37D06A2C33D025
:1053E000742C33D07A2C31D015E0E9680646284673
:1053F0008847B042044608D16C2E25D00126B6025B
:105400002846E9688847044605E06C2E02D0FF264E
:10541000013600E04026002C23D0204641381928D0
:1054200003D80120C002064320343A4628462E60A5
:105430002146FAF763FE00280CD0012808D0FF1D92
:10544000FF08FF000837B4E78026D9E70026D7E732
:105450003F1DAEE76A682046A9689047286A401C4D
:10546000A6E7286AF8BDF8B5042A2CD3830712D022
:105470000B78491C0370401C521E83070BD00B781D
:10548000491C0370401C521E830704D00B78491C32
:105490000370401C521E8B079B0F05D0C91ADF00FA
:1054A0002023DE1B08C90AE0FAF758FEF8BD1D46A6
:1054B00008C9FD401C46B4402C4310C0121F042AEA
:1054C000F5D2F308C91A521EF0D40B78491C0370A8
:1054D000401C521EEAD40B78491C0370401C012A60
:1054E000E4D409780170F8BD01E004C0091F042963
:1054F000FBD28B0701D50280801CC90700D0027047
:10550000704700290BD0C30702D00270401C491E0F
:10551000022904D3830702D50280801C891EE3E799
:105520000022EEE70022DFE7002203098B422CD3A2
:10553000030A8B4211D300239C464EE003460B43E3
:105540003CD4002243088B4231D303098B421CD345
:10555000030A8B4201D394463FE0C3098B4201D337
:10556000CB01C01A524183098B4201D38B01C01A6F
:10557000524143098B4201D34B01C01A52410309E6
:105580008B4201D30B01C01A5241C3088B4201D395
:10559000CB00C01A524183088B4201D38B00C01A42
:1055A000524143088B4201D34B00C01A5241411A69
:1055B00000D201465241104670475DE0CA0F00D04C
:1055C0004942031000D34042534000229C46030945
:1055D0008B422DD3030A8B4212D3FC22890112BACB
:1055E000030A8B420CD3890192118B4208D38901A3
:1055F00092118B4204D389013AD0921100E08909BB
:10560000C3098B4201D3CB01C01A524183098B429B
:1056100001D38B01C01A524143098B4201D34B0184
:10562000C01A524103098B4201D30B01C01A5241E7
:10563000C3088B4201D3CB00C01A524183088B426E
:1056400001D38B00C01A5241D9D243088B4201D3F7
:105650004B00C01A5241411A00D2014663465241E2
:105660005B10104601D34042002B00D549427047E1
:1056700063465B1000D3404201B50020C046C046DF
:1056800002BD70477047704770470B4670B50246C1
:1056900089078008084319469D08141AA94125095D
:1056A0000807054308092C194841250A01060D433E
:1056B000010A2C194141200C0D0428430D0C00193E
:1056C0004D41002140194D41C00869070843E908D0
:1056D000840F8D002543840024184D4124196D4109
:1056E000121BAB4107E00925ED432C115219634110
:1056F0000024401C61411C460A250026551BB4416C
:10570000F1D270BDFEB5054610460C46184373D065
:10571000AE468C460020AD1A01469C4167D36646D2
:10572000002701243D46B61A9D4102D313463A464E
:105730002124654676462F04360C3E432D0CB61ABE
:105740009D4104D3150C1B042B43120410346546F1
:1057500076462F06360A3E432D0AB61A9D4104D3DB
:10576000150E1B022B4312020834654676462F079E
:1057700036093E432D09B61A9D4104D3150F1B016E
:105780002B431201241D65467646AF07B6083E43FB
:10579000AD08B61A9D4104D3950F9B002B43920090
:1057A000A41C65467646EF0776083E436D08B61A98
:1057B0009D411AD392185B41641C16E0001876468E
:1057C00065464941B71A9D410191009009D3604651
:1057D000B11A98418E468446009801990025401CD4
:1057E0006941DD0752082A435B08641EE6D572460C
:1057F000634603B0F0BDFFE700200146C046C04647
:105800002A462346F5E7FFB504460D4681B024300D
:1058100000902168880604D51022E0699143216038
:1058200000E00120A84201DD471B00E000270498AA
:10583000A1697A191018081AA0612078C00602D44C
:105840002046C046C046002608E003986268A1686A
:10585000805D9047206A401C761C20620498864236
:10586000F3DB2078C0060AD52046C046C04606E0D5
:105870006268A16830209047206A401C2062384648
:105880007F1E0028F4DC07E000986268A168405D94
:105890009047206A401C206228466D1E0028F3DCD9
:1058A0002046C046C0462078000602D5022005B03A
:1058B000F0BD0120FBE70000084B70B50D467B44AE
:1058C00000F027F804462846FAF778FD002802D0B1
:1058D0000020C04370BD204670BD00001BABFFFF21
:1058E00001468008081A02091018020A1018020C52
:1058F0001018C008820012185200891A01E0401CDA
:105900000A390A29FBD2704701694A1C02610878EA
:10591000704700B58FB002910021059105490193B0
:1059200079440391114604906846FFF73DFD0FB09E
:1059300000BD0000E5FFFFFF754600F025F8AE460C
:10594000050069465346C008C000854618B020B51A
:10595000FAF720FD60BC00274908B6460026C0C5FE
:10596000C0C5C0C5C0C5C0C5C0C5C0C5C0C5403D17
:1059700049008D46704710B50446C046C0462046D3
:10598000FAF7E5FB10BD000000487047C42F002067
:1059900030B47446641E2578641CAB4204D3635D46
:1059A0005B00E31830BC18471D46F8E70000000014
:1059B0000001FF000102010007000A0000000000D2
:1059C00001000000010000000100000001000000D3
:1059D0000000000000000000000000002203880317
:1059E000A1030D01B503B20171014202C701CA034F
:1059F0008B0029014B026D0075019F002103850377
:105A00009C030B01AC03AD016C013902BF01B7036C
:105A1000880022013C026A006A019A001F0000000F
:105A20001F0000001D000000020000000200000036
:105A30006B046D046F0471047404760478047A04B2
:105A40005B045D045F0461046404660468046A0422
:105A50006C046E0470047204730475047704790492
:105A60005C045E0460046204630465046704690402
:105A70003031323334353637383941424344454684
:105A8000403058003031323334353637383961627E
:105A90006364656640307800B85A0000000000205A
:105AA000F4000000C4000000AC5B0000F400002023
:105AB0003C3B0000E00000000000005100000051ED
:105AC00000000000000000000000000000000000D6
:105AD000041025405760574025100400F4010000D1
